:020000040800F2
:100000007823002025320008013100080331000860
:100010000531000807310008093100080000000020
:100020000000000000000000000000000B3100088C
:100030000D310008000000000F31000811310008E8
:1000400035320008393200083D32000841320008DC
:1000500045320008493200084D320008513200088C
:1000600055320008593200085D320008613200083C
:1000700065320008693200086D32000871320008EC
:100080007532000823310008793200087D320008FB
:100090008132000885320008893200088D3200085C
:1000A000913200082B31000895320008993200087F
:1000B0009D320008A1320008A5320008A9320008CC
:1000C000AD320008B1320008B5320008B93200087C
:1000D000BD320008133100081B310008C13200088E
:1000E000C5320008C9320008CD320008D1320008FC
:1000F000D5320008D9320008DD320008E1320008AC
:10010000E5320008E9320008ED320008F13200085B
:10011000F5320008F9320008FD320008013300080A
:1001200005330008093300080D33000811330008B7
:1001300015330008193300081D3300082133000867
:1001400025330008293300082D3300083133000817
:1001500035330008393300083D33000841330008C7
:1001600045330008493300084D3300085133000877
:1001700055330008593300085D3300086133000827
:10018000653300086933000880B5012000F021FBC9
:1001900000F0D8FB5FF06632DFF8643500F0E0FB7A
:1001A0000022DFF8603500F0C5FC0022DFF858358A
:1001B00000F0D6FB00F0E2FDDFF850158881042046
:1001C00000F007FB00F0BEFB5FF06632DFF8303571
:1001D00000F0C6FB0022DFF82C3500F0ABFC00225B
:1001E000DFF82C3500F0A6FC0022DFF8283500F0FF
:1001F000B7FB0022DFF8103500F0B2FB00F0BEFDC7
:10020000DFF808154881032000F0E3FA00F09AFBBC
:100210005FF06632DFF8E83400F0A2FB0022DFF87E
:10022000E43400F087FC0022DFF8E43400F082FCC4
:10023000DFF8E424DFF8E43400F092FB0022DFF87A
:10024000C83400F08DFB00F099FDDFF8C014088180
:10025000022000F0BEFA00F075FB5FF06632DFF8B6
:10026000A03400F07DFB0022DFF8983400F062FC3F
:100270000022DFF8943400F05DFC0022DFF8A034A7
:1002800000F06EFB0022DFF8803400F069FB00F024
:1002900075FDDFF87814C88001BD38B50024002052
:1002A00000251021DFF87C0400F0CCFD002801D0EF
:1002B000012000E0002001002A00C9B2D2B2914220
:1002C00014D0DFF864140978491CDFF85C2411703D
:1002D000DFF8541409780A2908DB0021DFF84824E4
:1002E00011700500DFF824140D700124C0B2EDB2C6
:1002F000A84203D10020DFF8301408702000C0B2FB
:1003000032BD80B5FFF7C9FF00F0BDFF00F095FFDB
:1003100001BDDFF8F8034078012808D1DFF80C04AC
:10032000007850F00100DFF80414087007E0DFF8EF
:10033000FC03007810F0FE00DFF8F0130870DFF81F
:10034000CC038078012808D1DFF8E003007850F072
:100350000200DFF8D813087007E0DFF8D003007858
:1003600010F0FD00DFF8C4130870DFF8A003007977
:10037000012808D1DFF8B403007850F00400DFF85A
:10038000AC13087007E0DFF8A403007810F0FB005E
:10039000DFF898130870DFF87403C078012808D1DB
:1003A000DFF88803007850F00800DFF88013087049
:1003B00007E0DFF87803007810F0F700DFF86C133F
:1003C0000870DFF848030078012808D1DFF85C03E3
:1003D000007850F01000DFF85413087007E0DFF8E1
:1003E0004C03007810F0EF00DFF840130870DFF8DE
:1003F0003C03007810F0DF00DFF830130870DFF8FE
:100400002C03007810F0BF00DFF820130870DFF82D
:100410001C03007810F07F00DFF81013087070479D
:1004200038B59FED7E0AB948808900F08BFA00222A
:10043000B54B00F07FFB04000D00B448808900F04C
:1004400081FA0022B04B00F075FB02000B005FF058
:100450006630AB4901F04AF80022B54B00F06AFB68
:1004600002000B002000290000F064FB01F0B0F84E
:1004700000EE100AF2EE040AB4EE600AF1EE10FA91
:1004800001DB192040E0DFED660AB4EE600AF1EE10
:1004900010FA08DBF2EE040AB4EE600AF1EE10FA8C
:1004A00001D51B2030E0DFED930AB4EE600AF1EED7
:1004B00010FA08DBDFED5A0AB4EE600AF1EE10FA2A
:1004C00001D51D2020E0DFED8C0AB4EE600AF1EECC
:1004D00010FA08DBDFED870AB4EE600AF1EE10FADD
:1004E00001D51F2010E0DFED850AB4EE600AF1EEC1
:1004F00010FA08DBDFED800AB4EE600AF1EE10FAC4
:1005000001D5212000E04120C0B232BD10B5002449
:10051000FFF786FF7D4988737C48807B222803DBB8
:1005200001208449087002E0002082490870814857
:10053000007881490978884225D080480088401C8D
:100540007E4908807D4800880A281CDB00207B4902
:100550000880012477480078774908707648007849
:100560006A49087473480078012806D16748C07B3F
:1005700050F001006549C87305E06448C07B10F085
:10058000FE006249C8736B4800786B49097888425D
:1005900002D10020694908802000C0B210BD80B59A
:1005A00000215FF0006001F07DF801F0A1F801F09A
:1005B000F2F801F030FA01F0A4FA01F0F9FB01F0D1
:1005C00008FC00F087F901F0BBFC01BD00204F4999
:1005D000488100204D49088100204C4908700020C6
:1005E0004A49887000204949C8700020474948712D
:1005F00000204649487000204449087100204349C2
:10060000C88000204149887300204049C8730020F9
:100610003E49087400203D494874704700000000BE
:100620008E97144110B5002001213E4800F00AFCCD
:10063000002801D0002400E001242000C0B20128DD
:1006400051D13F480088401C3D4908803C48008803
:10065000002848D02D48407C002813D13848008815
:1006600014280FDB0120294948744FF48051354884
:1006700000F0FEFB8021344800F0F8FB10213148E7
:1006800000F0F6FB2148407C012814D12C4800885A
:10069000B0F5FA7F0FDB00201C49487480212A48FE
:1006A00000F0E6FB1021274800F0E0FB4FF48051FA
:1006B000244800F0DBFB1548407C022813D1204879
:1006C000008814280FDB01201049487480211E483F
:1006D00000F0CCFB10211B4800F0CAFB4FF4805106
:1006E000184800F0C5FBE4B2002C02D100201449E8
:1006F000088010BDAD1C0A41B1720041A01AEF4044
:1007000066660A4000FEAF400000594044030020E6
:100710000000244000804240CDCCCCCCCCCC30403A
:1007200000508040000002406C0300206D03002058
:10073000008047406E0300206F030020600300200C
:1007400062030020000402400008024038B58AB06D
:1007500004000D007548844204D101214FF48070DB
:1007600001F01DFD7248844204D101214FF4007054
:1007700001F015FD6F48844204D101214FF48060DF
:1007800001F00DFD002006905FF4803007900020FE
:1007900008900020099006A801F049FD0020009073
:1007A00001208DF8040001208DF805000020029042
:1007B0005FF070600390002004908DF8145069463B
:1007C000200001F00FFD0121200001F040FD0BB0E1
:1007D00030BD70B48AB00021002210E0564B1400E6
:1007E000E4B203EBC4030400E4B203EB440333F8C4
:1007F000023C6C461500EDB224F81530521C130073
:10080000DBB2142BEADB00202CE06B461400E4B2D0
:1008100003EB44035B886C461500EDB234F81540D9
:10082000A34215D26B461400E4B233F814306C4680
:100830001500EDB204EB450464886D461600F6B26F
:1008400025F816406C461500EDB204EB45046380B4
:10085000521C1300DBB20400E4B2D4F11304A3422F
:10086000D3DB401C0200D2B2142A01DA0022F0E7E6
:10087000022007E06A460300DBB232F8132011FAC7
:1008800082F1401C0200D2B2122AF3DB09090800EF
:1008900080B20AB070BC704780B504212348FFF7CE
:1008A00055FF072301220A21204801F0DDFC072320
:1008B00002220B211D4801F0D7FC072303220E2141
:1008C0001A4801F0D1FC072304220F21174801F038
:1008D000CBFC01BD80B586B0FFF7DEFF5FF4403092
:1008E00005904FF4807004904FF4005003904FF443
:1008F0000060029050200190002000900E4B0F4AA3
:1009000000210F4801F042FD01210D4801F0C2FD18
:100910000121064801F024FD0121044801F013FDE6
:10092000024801F00BFD07B000BD000000200140AF
:100930000021014000220140140100204C20014010
:100940001064024050B1B0FA80F18840C91CC1F572
:100950008461090501EBD0214005704701467047CD
:1009600030B540F2FF7C1CEA11541DBF1CEA135540
:10097000644565453FE0641981EA030C6FF35F53FA
:100980000CF0004C43F48013C90241F0004141EAED
:10099000505EC5021100A5FB020200284FF00000C6
:1009A000EEFB01204FF00001E3FB052118BF42F0F0
:1009B0000102401800214941E3FB0E01A4F58064C7
:1009C0000D0302D292184041494154F1010470DDF7
:1009D000450872F1004250F1000051EB0451A1F5BD
:1009E000801102D441EA0C0130BD40F2FF7E4CEA96
:1009F0000E51002030BD0CEA1355644518BF654503
:100A000081EA030C0CF0004C41D050EA410E1CBFAF
:100A100052EA430E02E06146002030BD24422C44DD
:100A20001BD15FEA050EF6D0090302BF0146002084
:100A3000AEF1140EB1FA81F5AEEB050401FA05FE34
:100A40000C35C5F1200100FA05F5C8404EEA000E4C
:100A50006FF35F5343F480139CE733F00043B3FA22
:100A600083F504BFB2FA82FE75440B3D641BB5F1F9
:100A7000200E2FBF02FA0EF3AB40C5F1200E22FA72
:100A80000EFE38BF43EA0E03AA40641C7CE750EA1E
:100A9000410E14BF52EA430E6FF000014FF40015EF
:100AA00015EB430F8EBF194615EB410F9DE7B4D8E8
:100AB00030BDD4F10104B4F120050FDAC4F12005F2
:100AC000520828BF42F0010210FA05FE01FA05F5AE
:100AD0007244E2BFE0402843E1400FE0352C9ADC4D
:100AE000C5F1200452EA400220FA05F218BF42F094
:100AF000010231FA05F0A1400A43002172F10042DF
:100B000050F1000051EB0C0130BD0EE0026843686B
:100B1000024408305FEAC37C44BF4B445B1E52F87A
:100B200004CB43F804CB091FF9D150F8041B00296A
:100B3000ECD17047F0B540F2FF7581EA030C0CF080
:100B4000004C15EA11541DBF15EA1357AC42AF42D1
:100B5000E5E0BC41C1F31301C3F31303801A9941CB
:100B600043F4801304D2641E00184941801859418F
:100B7000C90241EA5051B1FBF3F603FB1611A2FB87
:100B80000675D7EBC020A94102D2761E80185941C4
:100B9000C90241EA5051B1FBF3FE03FB1E11A2FB57
:100BA0000E75D7EBC020A94103D2AEF1010E80181B
:100BB0005941890241EA9051760546EA8E2EB1FBF1
:100BC000F3F603FB1611A2FB0675D7EB8020A941B3
:100BD00002D2761E80185941C90241EA50514EEAAC
:100BE000060EB1FBF3F603FB1611A2FB0675D7EB5D
:100BF000C020A94102D2761E80185941C90241EA9B
:100C00005051B1FBF3F703FB1711A2FB0735D3EBF0
:100C1000C020A94167F100070CBF004247F001075F
:100C200066F3D5274FEA1E31B80814F5806412DD4B
:100C3000BD0775F1004250EB0E5051EB045111F518
:100C4000801F5CBF41EA0C01F0BD4CF07F6141F0B8
:100C5000E0410020F0BDBD076D0840EA0E5041F4B0
:100C60008011D4F10104B4F120060ADAC4F120069F
:100C70000200E04001FA06F3E1401843B240154398
:100C80000EE0342C13DCC6F1200445EA40056D0863
:100C900020FA06F2154321FA06F0A1400D43002187
:100CA00075F1004250F1000051EB0C01F0BD002045
:100CB0005FEA0C01F0BDCFB992185B41B3FA83F73C
:100CC00004BFB2FA82F6BF190B3FB7F120062FBF5F
:100CD00002FA06F3BB40C7F1200622FA06F638BF37
:100CE0003343BA401CB1E419641E33E77F4231F04C
:100CF0000041B1FA81F404BFB0FA80F6A4190B3CAC
:100D0000B4F120062FBF00FA06F1A140C4F120067D
:100D100020FA06F638BF3143A0403C1B1AE7AC422C
:100D20001ABF05EA1357AF4212E050EA41061CBF52
:100D300052EA4306BFE750EA4107304661461CBF0E
:100D400041EA0551F0BD52EA430C08BFC143F0BD72
:100D500000204FF4001616EB410F98BF16EB430F1F
:100D600008BF16EB410F24BFC14305E016EB430F4C
:100D70000CBF61464CEA0551F0BD0000400D40F249
:100D80001E4C40EAC120BCEB115C40F0004003D493
:100D90008CF30701C84070476FEAE17070470000AC
:100DA00030B4002200220022002347E001229A40B2
:100DB0000C681440944240D1046803251A00D2B252
:100DC00052009540AC43046004680D791A00D2B219
:100DD000520095402C4304600A79012A02D00A7916
:100DE000022A1AD1846803251A00D2B25200954013
:100DF000AC43846084684D791A00D2B252009540A9
:100E00002C438460426801249C40A24342604268B3
:100E10008C799C40A4B222434260C46803251A0026
:100E2000D2B252009540AC43C460C468CD791A0078
:100E3000D2B2520095402C43C4605B1C102BB5D33A
:100E400030BC70470022006989B2084201D00120FD
:100E500000E00020C0B270470022406989B2084219
:100E600001D0012000E00020C0B27047018370472C
:100E70004183704770B400230023D2B211F00703FE
:100E8000DBB29B009A400B009BB2DB1000EB8304AB
:100E90000B009BB2DB1000EB83031D6A0F2611F0E1
:100EA0000703DBB29B009E40B54325620B009BB25B
:100EB000DB1000EB83031B6A1A4389B2C91000EBF5
:100EC0008100026270BC704780B5DFF84C04007886
:100ED000012879D1DFF840048078012874D1DFF847
:100EE0003804C078002840F07F80DFF82C040079B7
:100EF000022804D0DFF820040079032832D1DFF87B
:100F00001804C08840F28661884221DADFF80C04B8
:100F10000078401CDFF804140870DFF80004007843
:100F200065280ADB4FF48051DFF8F403FFF7A0FFD8
:100F30000120DFF8E413C87014E04FF48051DFF8AB
:100F4000E003FFF793FF0020DFF8CC13C87009E03F
:100F50004FF48051DFF8C803FFF78AFF0020DFF865
:100F6000B813C870DFF8B003007901280DD1002054
:100F7000DFF8A81308704FF48051DFF8A403FFF7DF
:100F800075FF0020DFF89013C870DFF88C03407CF9
:100F9000012806D14FF40071DFF88403FFF768FFE2
:100FA00022E0DFF87403C078002806D14FF4007106
:100FB000DFF86C03FFF75AFF16E04FF40071DFF81B
:100FC0006003FFF755FF0FE04FF48051DFF8500347
:100FD000FFF74EFF4FF40071DFF84403FFF748FFBF
:100FE0000020DFF83413C87001BD70B5DFF82803A6
:100FF000C088DFF830130880DFF81C030078012870
:1010000040F0A980DFF81C030088DFF81C13098872
:10101000884200F09680DFF814030078401CDFF867
:101020000C130870DFF804030078002800F08980B2
:10103000DFF8F0020088DFF8F0120880DFF8E40241
:10104000008840F24651884204DA0020DFF8E012BE
:10105000087076E0B3480088A0F2465096281FD268
:10106000012600E0761C152E6BDA300001F078FACC
:101070000022B04BFFF774FC0022AF4B00F078F970
:1010800002000B0014001D00A6480088FFF75AFC60
:1010900022002B0001F076FAE4D2A548067050E059
:1010A000A0480088A0F2DC50642820D2012600E08D
:1010B000761C3D2E45DA300001F052FA9F4AA04BD3
:1010C000FFF74EFC00229F4B00F052F902000B008C
:1010D00014001D0093480088FFF734FC22002B0009
:1010E00001F050FAE4D214369148067029E08D4898
:1010F0000088B0F5C860462820D2012600E0761CA2
:10110000142E1EDA300001F02BFA8F4A8F4BFFF7B6
:1011100027FC00228E4B00F02BF902000B0014007C
:101120001D0080480088FFF70DFC22002B0001F015
:1011300029FAE4D250367E48067002E064207C49E9
:101140000870784800887849098888424DD1002085
:101150007649087049E073480088734909888842D5
:1011600043D072480078401C704908706F4800787E
:1011700032283ADB6B4800886B4908806948008850
:10118000B0F5C86F03DB6420694908702DE065483D
:101190000088A0F21450B0F5967F23D2012600E01B
:1011A000761C642E21DA5F480088FFF7CBFB020033
:1011B0000B0014001D00300001F0D2F9654A664BA7
:1011C000FFF7CEFB02000B000020644900F08EF90F
:1011D00022002B0001F0D6F9E2D2D6F16406544881
:1011E000067002E00020524908705148007870BD36
:1011F00080B5FFF7FAFE4849487147480078012852
:1012000003D100204449487016E04348407915282E
:1012100009DA0120404948703F48C07B50F0020085
:101220003D49C87308E000203B4948703A48C07BFC
:1012300010F0FD003849C87301BD38B50024002006
:10124000002500F04DF801002A00C9B2D2B2914247
:101250000FD043490978491C414A11704049097827
:101260000A2906DB00213E4A117005002A490D714A
:101270000124C0B2EDB2A84202D100203849087062
:101280002000C0B232BD38B5002400200025022164
:101290003448FFF7D7FD002801D0012000E00020EE
:1012A00001002A00C9B2D2B291420FD02E4909786A
:1012B000491C2D4A11702C4909780A2906DB0021A6
:1012C000294A1170050014498D700124C0B2EDB295
:1012D000A84202D10020244908702000C0B232BDCB
:1012E00010B50020002000204FF480411F48FFF778
:1012F000A9FD002801D0012400E000244FF40041A2
:101300001A48FFF79FFD002801D0012000E00020CF
:1013100050EA4400C0B210BD440300206603002020
:10132000000802405C0300205E03002068030020E8
:101330006703002000001E40001895408FC2F5286A
:101340005C8FFA3F00709740713D0AD7A3700D4043
:10135000000099403D0AD7A3703D084000FC98402A
:1013600069030020000002406A03002000040240DC
:1013700070B491EA030F4FF0004540F1BF806B401D
:10138000841A71EB030604D26E40001BB14112199E
:1013900073414FF4001C1CEB410F34BF7CEB430640
:1013A00083E00C0DA4EB1356362E00F37C80012E47
:1013B00045EAC32341DC43EA525312BFD2029202F0
:1013C0005B08240545EAC12141EA5051D2EBC02017
:1013D000994125D407D1B0FA80F610FA06F162D00F
:1013E0000020203608E0B1FA81F6B140C6F12002B3
:1013F00020FA02F21143B0404FEAF474B4EB4654C1
:1014000034F001064FEA74040AD8D6F50016760DBA
:1014100004F00044F04061FA06F25040F1404840C8
:10142000C00A40EA415021F0004128BF5FEA500560
:1014300050F1000044EBD12135E0DB0A45EAC1213F
:10144000C90AB6F120050EDD42EA0242120CC5F1CE
:10145000200603FA06F6EB4042EA06056D42984183
:1014600061F100010DE062FA06F5F240554063FAC1
:1014700006FC82EA0C02F3405A406D42904161EB57
:10148000030111F4801F05D1641E620502D06D00B6
:101490004041494121F48011430875F1004350F166
:1014A000000041EB045170BC70471CEB410F15D29A
:1014B00023F0004352EA43060BD04FEA4C0CBCEB3E
:1014C000410F04D80C0D661E342EB7DDEBE7801AF1
:1014D000994150EA410608BF0021E4E708BF1CEB30
:1014E000430F28BF6FF00001DDE7000070B491EA00
:1014F000030F4FF000457FF543AF6B40841A71EB4B
:10150000030603D2001BB141121973414FF4001CB2
:101510001CEB410F34BF7CEB430442E00C0DA4EB09
:101520001356352E4FDC45EAC323DB0A45EAC121B9
:10153000C912B6F120050DDD63FA05F6EB4086EA27
:101540000305124218BF45F00105C01851F1000112
:101550000CD213E062FA06F5F2405540F3415A40CE
:10156000B340F3405A408018594107D349085FEA15
:1015700030005FEA350528BF45F0010501F580110F
:10158000420875F1004250F1000041EB04514E0059
:1015900016F5001F70BC38BF70470020090D090503
:1015A00070471CEB410F10D252EA43060BD0BCEB44
:1015B000410F05D80C0DAB43661E342EB6DD02E09C
:1015C000AB438018594170BC704770BC7047000035
:1015D00001F000428B1AA3F16051B1F5801F0ADBC4
:1015E000B1F17F6F1FD242EAC102C10071F1004127
:1015F00042EB507070470B15C3F10903212B10D239
:10160000890241EA905180020128494141F000419C
:1016100021FA03F0C3F12003994071F100415041D8
:101620007047100070476FF0000013EB103F5CBF75
:10163000000E42EAC050704725490843254908601A
:101640007047002100210F23C17800291FD02149B4
:10165000096811F4E061D1F5E061090AD1F10402F1
:10166000DBB20B41417811FA02F281780B401A4348
:10167000120119490378CA540121027812F01F029D
:101680009140164A0078401142F8201009E00121EB
:10169000027812F01F029140114A0078401142F87E
:1016A000201070470F4A114008430F4908607047E7
:1016B000042806D10D48006850F004000B4908606A
:1016C00005E00A48006830F00400084908607047E7
:1016D0000000FA050CED00E000E400E000E100E0AD
:1016E00080E100E080FFFF1F08ED00E010E000E077
:1016F00080B54FF4E060FFF79FFF11208DF80000E8
:1017000000208DF8010002208DF8020001208DF8E4
:1017100003006846FFF795FF25208DF800000020A4
:101720008DF8010005208DF8020001208DF80300DE
:101730006846FFF786FF26208DF8000000208DF810
:10174000010004208DF8020001208DF80300684696
:10175000FFF777FF19208DF8000000208DF80100B9
:1017600003208DF8020001208DF803006846FFF782
:1017700068FF01BD1CB5049C89B200918DF804205E
:1017800003218DF805108DF806308DF80740694665
:10179000FFF706FB13BD80B50121072000F0DBFC3D
:1017A00001215FF0805000F0EAFC012000F004FF0E
:1017B000002000F049FC002000F0FEFE0120009017
:1017C0000023002201217C48FFF7D4FF0020009075
:1017D0000023002202217848FFF7CCFF07220221D4
:1017E0007548FFF747FB072203217348FFF742FBC9
:1017F000002000900023022204216F48FFF7BAFF67
:10180000002000900023022208216B48FFF7B2FF5E
:10181000002000900023002210216748FFF7AAFF54
:10182000002000900023012240216348FFF7A2FF1F
:10183000012208216048FFF71DFB002000900023D3
:1018400002224FF480715C48FFF794FF07220921C0
:101850005948FFF70FFB07220A215748FFF70AFBF9
:1018600000200090002302224FF400715248FFF73D
:1018700081FF00200090002302224FF480614E4837
:10188000FFF778FF002000900023012202214B483F
:10189000FFF770FF02214948FFF7E8FA00200090A7
:1018A0000023012210214548FFF764FF102143481F
:1018B000FFF7DCFA002000900023012280213F483E
:1018C000FFF758FF00200090002300224FF48071A2
:1018D0003A48FFF74FFF00200090002301224FF409
:1018E00000713648FFF746FF0020009000230122D8
:1018F0004FF480613148FFF73DFF00200090002346
:1019000001224FF480512D48FFF734FF4FF48051EE
:101910002A48FFF7ABFA00200090002300224FF482
:1019200000412648FFF726FF0020009000230022F8
:101930004FF480412148FFF71DFF00200090002355
:10194000032201211E48FFF715FF0020009000230D
:10195000032202211A48FFF70DFF00200090002308
:10196000032210211648FFF705FF002000900023F6
:10197000032220211248FFF7FDFE002000900023E3
:10198000012280210E48FFF7F5FE80210C48FFF769
:101990006FFA00200090002301224FF400710848E4
:1019A000FFF7E8FE00200090002301224FF4805151
:1019B0000348FFF7DFFE01BD0000024000040240C3
:1019C00000080240020052B2002A08D50901174A55
:1019D00040B210F00F00104400F8041C03E00901AD
:1019E000134A40B21154704780B5411EB1F1807F57
:1019F00001D301200EE0401E0E4908600F215FF068
:101A0000FF30FFF7DFFF00200B49086007200B497C
:101A10000860002002BD80B545F20820FFF7E4FF12
:101A20007FF00400FFF744FE01BD000018ED00E068
:101A300000E400E014E000E018E000E010E000E066
:101A40007FB504000E0015008148844203D10121B6
:101A5000012000F0A4FBB4F1804F03D1012101204B
:101A600000F08DFB7B48844203D10121022000F06D
:101A700086FB7948844203D10121042000F07FFBDA
:101A80007648844203D10121082000F078FBB6B2E9
:101A900001960020ADF80200ADF800500020ADF82E
:101AA00008006946200000F08DFD7FBD18B585B0A7
:101AB0000400ADF800100120ADF802000020ADF8E0
:101AC00004000020ADF80C00002002900020ADF8CA
:101AD0000C000820ADF80E004FF48070ADF8100037
:101AE0000020ADF812000021200000F007FE0021C8
:101AF000200000F09BFD6946200000F0B3FD06B019
:101B000010BD80B5532240F2E7315148FFF798FFEE
:101B1000012201214E4800F00AFE01214C4800F04C
:101B200093FD60214A48FFF7C1FF0121484800F0BA
:101B3000EDFD01BD80B50121454800F004FE0028FF
:101B400000F0818046480088401C45490880444890
:101B500000880A2190FBF1F201FB1200002805D158
:101B60004048007850F001003E4908703C48008829
:101B7000322190FBF1F201FB1200002805D1394817
:101B8000007850F002003749087035480088642119
:101B900090FBF1F201FB1200002805D131480078DA
:101BA00050F004002F4908702D480088C82190FB90
:101BB000F1F201FB1200002805D12A48007850F00C
:101BC000080028490870264800884FF4967190FB59
:101BD000F1F201FB1200002805D12248007850F0F4
:101BE0001000204908701E4800884FF4FA7190FBDD
:101BF000F1F201FB1200002805D11A48007850F0DC
:101C0000200018490870164800884FF47A7190FB3C
:101C1000F1F201FB1200002805D11248007850F0C3
:101C20004000104908700E4800884FF4FA6190FB9C
:101C3000F1F201FB1200002805D10A48007850F0AB
:101C40008000084908700121014800F08EFD01BDA7
:101C5000000001400004004000080040000C00406B
:101C6000640300207003002038B584B004000D0028
:101C7000A548844204D10121102000F090FA22E00E
:101C8000A248844205D101215FF4003000F077FAC8
:101C900019E09F48844205D101215FF4802000F0C3
:101CA0006EFA10E09B48844205D101215FF40020C8
:101CB00000F065FA07E09848844204D101215FF4FE
:101CC000801000F05CFA00950020ADF804000020C0
:101CD000ADF806000020ADF808000C20ADF80A00B1
:101CE0000020ADF80C006946200000F043FD05B06F
:101CF00030BD38B504000D004021200000F0EAFDA1
:101D00000128F9D1EDB2290089B2200000F0A4FD2C
:101D100031BD01000020814A9279022A1ED07F48FD
:101D200000687E4A127981547C480079401C7B49C6
:101D300008717A480079C82802DB002077490871C9
:101D40007648007975494979884203D10220734960
:101D5000887102E00120714988710120C0B270478A
:101D6000020000206D49897900291FD06B48006866
:101D70006A494979405C107068484079401C67495D
:101D8000487166484079C82802DB002063494871E1
:101D90006248407961490979884203D100205F494E
:101DA000887102E001205D4988710120C0B270474E
:101DB00080B55FF4E1315448FFF756FF012240F24D
:101DC0002551514800F05CFD01214F4800F036FDDF
:101DD00001BD80B586B05FF4E1314C48FFF744FFA8
:101DE000002240F22551494800F04AFD002240F20D
:101DF0002771464800F044FD012240F22441434847
:101E000000F03EFD01224021404800F02DFD01225E
:101E100080213E4800F028FD5FF4403005904FF4EB
:101E200080700490002003900020029064200190B4
:101E3000002000903A4803683A4A5FF000613A484F
:101E400000F0A4FA5FF4403005904FF480700490E5
:101E50000020039000200290642001904020009018
:101E6000324803682F4A5FF00061314800F08EFA73
:101E700001212D4800F00EFB00212D4800F00AFB47
:101E80000121224800F0DAFC07B000BD80B540F225
:101E900025511D4800F02BFD00280AD040F22551A5
:101EA000194800F057FD184800F0DAFCC0B2FFF7FF
:101EB00030FF40F22441154800F019FD002822D0DF
:101EC00040F22441114800F045FD104800881548B3
:101ED00000880021144800F0DDFA1649124800F08D
:101EE000ECFA114800F0E6FAD0F164000C490871F0
:101EF0000B480068104908606420104908600121FF
:101F0000094800F0C7FA01BD00100140004400403C
:101F100000480040004C00400050004034000020C9
:101F20003C0000200444004088600240440000203F
:101F3000A060024020000020946002408C600240BB
:101F400080B54FF400713D48FEF792FF00213C48F8
:101F500000F0D2FB01BD80B53A48407C012862D137
:101F60003848807B192809D14FF400713348FEF7B7
:101F70007FFF0021324800F0BFFB5DE03148807BED
:101F80001B2809D14FF400712C48FEF76FFFFA218E
:101F90002B4800F0B1FB4FE02A48807B1D280AD176
:101FA0004FF400712548FEF761FF4FF4E1712448BA
:101FB00000F0A2FB40E02348807B1F280AD14FF4A9
:101FC00000711E48FEF752FF40F28A211C4800F0C3
:101FD00093FB31E01B48807B21280AD14FF400712C
:101FE0001648FEF743FF4FF44871154800F084FB94
:101FF00022E01448807B41280AD14FF400710F4839
:10200000FEF734FF40F2E7310D4800F075FB13E0B6
:102010004FF400710948FEF729FF40F2E731084804
:1020200000F06AFB08E04FF400710448FEF720FF5F
:102030000021034800F060FB01BD000000040240E5
:1020400000000140440300200021DFF87C211170D2
:102050000021DFF874211170C0B2012802D00428D9
:1020600005D009E00120DFF86011087004E00520C8
:10207000DFF854110870FFE77047002100210021AC
:10208000022100210221DFF83811096811F00C014A
:10209000002904D0042906D0082908D033E0DFF84D
:1020A0002C11016032E0DFF8281101602EE0DFF82A
:1020B00014110968C1F38051DFF80821126812F089
:1020C0003F0200290AD0DFF80811B1FBF2F2DFF875
:1020D000F4100968C1F388114A4309E0DFF8EC10F5
:1020E000B1FBF2F2DFF8DC100968C1F388114A4352
:1020F000DFF8D0100968C1F30141491C4900B2FB67
:10210000F1F1016002E0DFF8C4100160DFF8B01007
:10211000096811F0F0010909DFF8B820515C026884
:10212000CA404260DFF89810096811F4E051890A4A
:10213000DFF8A020515C4268CA408260DFF880105E
:10214000096811F46041490BDFF88820515C42684E
:10215000CA40C2607047C9B2002907D0DFF87810C2
:1021600009680843DFF87010086007E0DFF86810BE
:10217000096831EA0000DFF8601008607047C9B2F2
:10218000002905D01549096808431449086005E08D
:102190001249096831EA0000104908607047C9B265
:1021A000002905D00E49096808430D49086005E07B
:1021B0000B49096831EA00000949086070470000CE
:1021C0000838024004380240703802400024F4000D
:1021D00000127A00240000203038024040380240CB
:1021E0004438024010B4002200234468634A14407B
:1021F0000A7954EA02240A68144344608468604AF5
:1022000014400A691443CA6814438A6814434A791B
:1022100054EA42048460C26A32F47002097D491EA5
:102220000B43DBB252EA0352C26210BC704700217A
:1022300054490A6854490A4001680A4341680A43FC
:1022400081680A43C06802434E4802607047C9B2C1
:10225000002904D0816851F00101816003E08168A8
:102260004908490081607047F0B4002400240C0044
:10227000E4B20A2C13DBC5680726B1F10A04032770
:1022800014FB07F416FA04F4A543DBB2B1F10A0417
:10229000032614FB06F4A3402B43C3600EE005693C
:1022A0000726032411FB04F416FA04F4A543DBB259
:1022B000032411FB04F4A3402B4303611300DBB29E
:1022C000072B11DA436B1F25541E052614FB06F459
:1022D00015FA04F4A343C9B2521E052412FB04F2FA
:1022E00091401943416327E01300DBB20D2B11DA53
:1022F000036B1F25D41F052614FB06F415FA04F4FE
:10230000A343C9B2D21F052412FB04F29140194322
:10231000016311E0C36A1F25B2F10D04052614FB09
:1023200006F415FA04F4A343C9B20D3A052412FBCE
:1023300004F291401943C162F0BC7047816851F0CA
:10234000804181607047C9B2002904D0816851F48E
:102350008071816003E0816831F480718160704731
:10236000C9B2002904D0816851F40071816003E092
:10237000816831F40071816070470000FFFEFFFC4E
:10238000FDF7FFC004230140E030FCFF2DE9F841D8
:102390008FB006000F0015001C002748864205D2AA
:1023A00001215FF40010FFF7D6FE04E001215FF485
:1023B0008000FFF7D0FE1B991A9A199BDDF860E0A8
:1023C0001798DDF85880009701950294CDF80C809D
:1023D00080B20490002005904FF480600690CDF804
:1023E0001CE0089309920A9100200B9003200C90A6
:1023F00000200D9000200E906946300000F022F879
:102400000021300000F046F810B0BDE8F08180B542
:102410000A490B4800F061F800280BD00021084859
:1024200000F038F80121064800F041F8034904485B
:1024300000F079F801BD0000006402402080002017
:10244000A060024000220368404A13400A68134318
:10245000CA6813434A6913438A691343CA69134319
:102460000A6A13434A6A13438A6A13434A6B134343
:102470008A6B134303604369DB08DB00CA6A1343BA
:102480000A6B134343610A6942604A688260896843
:10249000C1607047C9B2002904D0016851F0010140
:1024A000016003E00168490849000160704789B292
:1024B00041607047406880B27047234A904201D221
:1024C000234A00E0234A880003D523480140D16015
:1024D00002E0214801409160704700220022002262
:1024E000194A904201D21A4B00E01A4B1B4A114282
:1024F00006D00A00D20A12F01E020068024002E072
:10250000426912F08002880001D55B6800E01B6818
:10251000114803400B4203D0002A01D0012000E003
:102520000020C0B27047084A904201D2084A00E039
:10253000084A880003D508480140D16002E00648F7
:102540000140916070470000106402403F801CF021
:1025500000600240006402407D0F7D0F3C0F3C0F85
:1025600010F0004160B148BF4042B0FA80F29040A4
:10257000D21CC2F5846241EA025202EBD02140052E
:102580007047000041EA030C50EA4C0C52EA0C0C74
:102590004FF4001C09D307D01CEB410F9CBF1CEB70
:1025A000430F8B4208BF824270471CEB430FFBD89E
:1025B000994208BF90427047C0B201490860704715
:1025C00020000E4200220388444A90420ED0494A1D
:1025D00090420BD0B0F1804F08D0414A904205D0D4
:1025E000404A904202D0404A904204D14FF68F7246
:1025F00013404A8813433D4A904207D03C4A9042D8
:1026000004D04FF6FF4213400A89134303804A68FF
:10261000C2620A880285314A904202D0354A90420D
:1026200001D1897A0186012181827047C9B20029CE
:1026300004D0018851F08001018004E002884FF647
:102640007F710A4002807047C9B2002904D0018816
:1026500051F00101018004E002884FF6FE710A404A
:102660000280704730B4002200220022038C4FF613
:10267000FE7213400384058C8388048B4FF68F729F
:1026800014404FF6FC7214400A8814434FF6FD7252
:1026900015408A8915434A881543104A904202D052
:1026A000144A904213D14FF6F7721540CA89154368
:1026B0004FF6FB7215408A8815434FF6FF621340B0
:1026C0004FF6FF5213400A8A13434A8A134383800A
:1026D000048389684163058430BC70470000014071
:1026E0000004004000080040000C004000100040C2
:1026F0000014004000040140416370470022038B36
:102700004FF6F7721340194301837047C9B200298D
:1027100006D0B0F8441051F40041A0F8441005E090
:10272000B0F844104904490CA0F844107047D2B2E4
:10273000002A03D082891143818103E0828932EA31
:10274000010181817047002200220022028A0A4092
:102750008089014092B2002A04D089B2002901D0B8
:10276000012000E00020C0B2704789B2C943018255
:102770007047000038B584B005000C000020002030
:1027800000200020A0890028298A31F44051E088E7
:1027900001432982A98928480140A0880143208952
:1027A000014360890143A981A98A31F44071A0895C
:1027B0000143A9826846FFF760FC1D48854202D0AC
:1027C0001C48854201D1039900E00299A8890004C0
:1027D00006D51920414320684000B1FBF0F205E026
:1027E0001920414320688000B1FBF0F26420B2FB65
:1027F000F0F109010B001B097FF0630000FB0322CD
:10280000A889000408D5D00032306422B0FBF2F071
:1028100010F00700014307E0100132306422B0FBE2
:10282000F2F010F00F000143298105B030BD000027
:102830000010014000140140F3E9FFFFC9B2002974
:1028400004D0818951F40051818104E082894DF6E0
:10285000FF710A4082817047C905C90D81807047A8
:102860008088C005C00D7047D2B2002A03D0828A8A
:102870001143818203E0828A32EA0101818270473A
:1028800010B400230023002300230B0040F66A1439
:102890009BB2A3420B00DBB25B09DBB289B211F041
:1028A0001F01012414FA01F1012B01D10C3004E0C5
:1028B000022B01D1103000E01430D2B2002A03D034
:1028C00002681143016003E0026832EA010101601D
:1028D00010BC704700220A0092B2B2F5007F008857
:1028E000084201D0012000E00020C0B2704710B4BF
:1028F00000220022002200220A0040F66A1392B24F
:102900009A420B00DBB25B09DBB20A0092B212F012
:102910001F02012414FA02F2012B02D183891A400A
:1029200006E0022B02D1038A1A4001E0838A1A4092
:1029300089B2090A89B2012313FA01F10088014022
:10294000002A03D0002901D0012000E00020C0B2FD
:1029500010BC7047002200220A0040F66A1392B2AF
:102960009A4289B2090A012212FA01F189B2C943D5
:10297000018070471CB500208DF800000024DFF8AE
:10298000D404007800280AD0022838D01FD30428A5
:1029900053D043D3062800F0818070D3BEE0684650
:1029A000FFF7DEF9012811D19DF80000682809D150
:1029B0009DF80000DFF8A01408700120DFF89414DF
:1029C000087003E00020DFF88C140870A6E0684669
:1029D000FFF7C6F9012811D19DF80000042809D19C
:1029E0009DF80000DFF8701448700220DFF86414CE
:1029F000087003E00020DFF85C1408708EE0684681
:102A0000FFF7AEF9012808D19DF80000DFF848145F
:102A100088700320DFF83C1408707FE06846FFF7F9
:102A20009FF9012808D19DF80000DFF82C14C87028
:102A30000420DFF82014087070E06846FFF790F972
:102A400001281BD19DF80000DFF80C144968DFF85D
:102A50000C2412688854DFF804040068401CDFF876
:102A6000FC130860DFF8F4030068DFF8EC13C978A2
:102A7000884203DB0520DFF8DC1308704EE068466F
:102A8000FFF76EF9012808D19DF80000DFF8C813A0
:102A900008720620DFF8BC1308703FE06846FFF7B5
:102AA0005FF901283AD19DF8000016282ED10020A8
:102AB000DFF8A8130860DFF8A00340780419DFF8F6
:102AC000980380780419DFF89003C0780419002176
:102AD00005E0DFF884034068405C0419491CDFF816
:102AE0007803C0788142F4DBDFF86C03007AE4B24B
:102AF000844205D10020DFF85C13087001200EE04D
:102B00000020DFF850130870002008E00020DFF8F4
:102B10004C1308600020DFF83C130870002016BD3D
:102B2000427881788A18C1788A180272002205E0FA
:102B3000037A4168895CCB180372521CC1788A42BF
:102B4000F6DB704738B504002178DFF81403FFF78F
:102B5000D0F86178C248FFF7CCF8A178C048FFF7F9
:102B6000C8F8E178BE48FFF7C4F8002505E06068C2
:102B7000415DBB48FFF7BDF86D1CE0788542F6DB90
:102B8000217AB748FFF7B5F8617AB548FFF7B1F891
:102B900031BD012181700121C17010214068017097
:102BA000704738B504000220A0701320E0700B229B
:102BB000AC496568280000F065F90822A9496068F9
:102BC00010F10B04200000F05DF931BD80B501214A
:102BD00081700121C1700021406801700220A2496A
:102BE00048740221A148FEF743F980219F48FEF76F
:102BF0003DF980219E48FEF73BF910219B48FEF7E6
:102C000035F901BD80B5482181700121C1700021D5
:102C10004068017080219648FEF72AF910219348F8
:102C2000FEF724F900209049487401BD47218170C6
:102C30000121C1708C49C97B4068017070474121F6
:102C400081700121C1708B4909784068017070471B
:102C5000462181700121C1708349897B40680170E0
:102C60007047422181700621C1707F49C98889B2AD
:102C7000090A426811707C49C988426851707A49D2
:102C8000498989B2090A426891707749498942683D
:102C9000D1707549098989B2090A4268117172496E
:102CA00009894068417170474B2181700121C170D1
:102CB0006D4949794068017070474C21817001214C
:102CC000C170012140680170704780B5807801288B
:102CD00010D0022812D0052814D041281ED0422836
:102CE00024D046281ED0472814D048280ED04B2880
:102CF00020D023E00800FFF74CFF22E00800FFF798
:102D000050FF1EE00800FFF761FF1AE00800FFF720
:102D100079FF16E00800FFF789FF12E00800FFF7CF
:102D20008EFF0EE00800FFF793FF0AE00800FFF7B0
:102D300098FF06E00800FFF7B7FF02E00800FFF782
:102D4000BCFF01BD80B54C494348FFF7BEFF4A4870
:102D5000FFF7E6FE4848FFF7F5FE01BD80B547489E
:102D6000007810F00100002816D04448007810F0D8
:102D7000FE004249087040214148FEF76DF80028E6
:102D800004D040213E48FEF773F803E040213C4860
:102D9000FEF76CF8FDF746FC38480078C0F3800079
:102DA000C0B200280DD03548007810F0FB00334940
:102DB0000870FDF7A6FAFDF7E7F9FDF731FBFDF71F
:102DC000A5FB2E480078C0F30010C0B200281DD02B
:102DD0002A48007810F0EF00284908702248407C0B
:102DE00001280FD180212148FEF736F8002804D0B1
:102DF00080211E48FEF73CF808E080211B48FEF7C2
:102E000035F803E080211948FEF732F81B480078B6
:102E1000C0F34010C0B2002807D01848007810F066
:102E2000DF0016490870FDF774FA14480078C0F303
:102E30008010C0B200280BD01048007810F0BF00FE
:102E40000E490870FEF740F8FEF7D2F9FFF783F855
:102E500001BD00006B0300200C000020580300207F
:102E60000010014000000020440300200004024044
:102E7000000802406D0300201800002070030020AD
:102E80000000024062B38B0708D0521E11F8013BCC
:102E900000F8013B00F024808B07F6D1830740F057
:102EA000208000BF103A07D330B4B1E83810103A90
:102EB000A0E83810F9D230BC530724BFB1E808109D
:102EC000A0E8081044BF51F8043B40F8043BD20787
:102ED00024BF31F8022B20F8022B44BF0B7803707B
:102EE0007047121F17D35B0009D151F8043B20F83B
:102EF000023B1B0C121F20F8023BF6D20BE051F8EC
:102F0000043B00F8013B1B0A20F8023B1B0C121F7C
:102F100000F8013BF3D238BF121D521E24BF11F836
:102F2000013B00F8013BF8D87047000080B54748E6
:102F3000006850F47000454908604548006850F04A
:102F40000100434908600020424908604048016888
:102F5000414801403E4801604048414908603C48C2
:102F6000006830F480203A49086000203D4908603C
:102F700000F005F85FF000603B49086001BD82B0D9
:102F800000200190002000903148006850F480300B
:102F90002F4908602E48006810F400300090019816
:102FA000401C01900098002803D10198B0F5A04F73
:102FB000F0D127480068800302D50120009001E08D
:102FC00000200090009801283CD12848006850F06B
:102FD0008050264908602648006850F44040244943
:102FE00008601C4800681B4908601A4800681949B5
:102FF00008601848006850F48050164908601D4861
:10300000174908601248006850F080701049086045
:103010000F4800688001FBD540F202701649086035
:103020000C480068800880000A4908600948006868
:1030300050F00200074908600648006810F00C00D4
:103040000828F9D102B070470000000088ED00E0C8
:103050000038024008380240FFFFF6FE103000241E
:10306000043802400C38024008ED00E040380240CD
:103070000070004008544107003C02404D61792037
:10308000313120323032320068040000B4010020B7
:10309000001600006804000018020020001600005E
:1030A00000000000010203040102030406070809EE
:1030B0004C000020000000007C0200200000000006
:1030C000E00200200000000030B4002512E050F8BB
:1030D000042BD30744BF4A44521E091F042942F857
:1030E000045BFAD213468C0744BF15809B1CC907AA
:1030F00048BF1D7050F8041B0029E8D130BC704750
:103100007047FEE7FEE7FEE7FEE77047704770474F
:10311000704780B5FEF7BAFE01BD80B5FEF7B6FE7A
:1031200001BD80B5FFF773F901BD80B5FEF702FD63
:1031300001BD000010B5074979441831064C7C44A4
:10314000163404E00A68081D114488470146A1426C
:10315000F8D110BD2C0000004C0000004EF6885144
:10316000CEF20001086840F470000860BFF34F8F92
:10317000BFF36F8F4FF00070E1EE100A7047000050
:1031800049FFFFFF280300004C0000200000000062
:103190007BD9FFFF4C000000E4FEFFFF0000002091
:1031A0000000000000F00DF8002801D0FFF7C2FF7A
:1031B000AFF300800020AFF3008000F004F800F0CF
:1031C00010F80120704780B5FDF7E9F9FDF7FEF929
:1031D000FFF7D0FB012801D1FFF7B4FDFFF7BEFDDB
:1031E000F6E700F001B800000746384600F002F8A4
:1031F000FBE7000080B5AFF30080024A1100182001
:10320000ABBEFBE7260002000548014603B4684652
:1032100080F30988AFF30080FFF7A0FFFFF7C2FF3C
:10322000A5EDF5FE01488047014800472D2F000815
:1032300009320008FFF7FEBFFFF7FEBFFFF7FEBF32
:10324000FFF7FEBFFFF7FEBFFFF7FEBFFFF7FEBFB2
:10325000FFF7FEBFFFF7FEBFFFF7FEBFFFF7FEBFA2
:10326000FFF7FEBFFFF7FEBFFFF7FEBFFFF7FEBF92
:10327000FFF7FEBFFFF7FEBFFFF7FEBFFFF7FEBF82
:10328000FFF7FEBFFFF7FEBFFFF7FEBFFFF7FEBF72
:10329000FFF7FEBFFFF7FEBFFFF7FEBFFFF7FEBF62
:1032A000FFF7FEBFFFF7FEBFFFF7FEBFFFF7FEBF52
:1032B000FFF7FEBFFFF7FEBFFFF7FEBFFFF7FEBF42
:1032C000FFF7FEBFFFF7FEBFFFF7FEBFFFF7FEBF32
:1032D000FFF7FEBFFFF7FEBFFFF7FEBFFFF7FEBF22
:1032E000FFF7FEBFFFF7FEBFFFF7FEBFFFF7FEBF12
:1032F000FFF7FEBFFFF7FEBFFFF7FEBFFFF7FEBF02
:10330000FFF7FEBFFFF7FEBFFFF7FEBFFFF7FEBFF1
:10331000FFF7FEBFFFF7FEBFFFF7FEBFFFF7FEBFE1
:10332000FFF7FEBFFFF7FEBFFFF7FEBFFFF7FEBFD1
:10333000FFF7FEBFFFF7FEBFFFF7FEBFFFF7FEBFC1
:10334000FFF7FEBFFFF7FEBFFFF7FEBFFFF7FEBFB1
:10335000FFF7FEBFFFF7FEBFFFF7FEBFFFF7FEBFA1
:0C336000FFF7FEBFFFF7FEBFFFF7FEBF48
:0400000508003209B4
:00000001FF
